:1000000080313428080008007E14803100308600DA
:10001000003087000B1F0D280E2832282E001A1ED4
:10002000122813281B28101E162817281B28963163
:10003000EE26803132281A1D1E281F282728101D61
:100040002228232827289531D625803132281A1CCA
:100050002A282B283228101C2E282F2832289631A7
:10006000D72680317E100900803136284830840040
:1000700095308500DF3086000030870007309531ED
:100080003B2580311E308400953085002830860065
:1000900001308700053095313B258031FA01FB01A5
:1000A000E801E901EA01A030840000308500333026
:1000B000953135258031A030840001308500203015
:1000C0009531352580317E10200080316728C2307F
:1000D00086000030870050308400023085000530F3
:1000E0002200A00016001A00A00B7228DF30860044
:1000F0000030870055308400023085000530A000B4
:1001000016001A00A00B8028BD3086000030870042
:1001100046308400023085000530A00016001A0029
:10012000A00B8E2828308600013087004B308400D9
:10013000023085000530A00016001A00A00B9C2894
:100140002400C3010130BB000130BC00C201BE016C
:10015000BF01C001C10197315E2780318B170B179A
:100160009531E32580318B31A623803197319C274F
:1001700080318A30F2001530F3009531232580312B
:100180009531152580319731052780319430F20063
:100190001530F3009531292580319731BC27803106
:1001A0009E30F2001530F30095312F2580318831D3
:1001B000012080319531122580319531B225803171
:1001C0005A30F4000230F5001430F600F030F70039
:1001D0008E313026803124005A08031DF028F12882
:1001E00003290530DA000330DB000A30DC0001307F
:1001F000DD000C30DE00DF01E0011430E1000230F0
:10020000E200E301E4014630F4000230F500003082
:10021000F600F030F7008931492180314B30F4008D
:100220000230F5000530F600F030F7008931492141
:1002300080315030F4000230F5000A30F600F03022
:10024000F7008931492180315530F4000230F50042
:100250000F30F600F030F700893149218031240059
:100260005C0821005006031D36293729392924004E
:10027000C10120000D1A3D293E294D2921006508A4
:100280000319432944294D29E5019531672580311A
:100290009531182580312400BB0120008E1A512988
:1002A0005229612921006408031957295829612915
:1002B000E40195318125803195311B258031240061
:1002C000BC0124003B08031D662967297129013000
:1002D000BB004208031D6D296E297129C001BE01B2
:1002E000BF013C08031D7529762993290130BC0004
:1002F0004208031D7C297D2993292100D00101306A
:10030000CD000330F2000030F30024004108013E2C
:10031000F400003003180130F5008931DD2180310F
:1003200072082400C100BD015D08031998299929AC
:100330000B2A3F0803199D299E29B529200016166E
:1003400021004E08031DA529A629B1292030F2005D
:100350000030F3009631C22680312100CF010130F8
:10036000CE0001302400BD00B72920001612240061
:100370003E080319BC29BD29D42920009616210066
:100380004E08031DC429C529D0294230F20000308F
:10039000F3009631C22680312100CF010130CE001A
:1003A00001302400BD00D629200096122400400808
:1003B0000319DB29DC29F02921004E08031DE1295E
:1003C000E229ED296330F2000030F3009631C226B5
:1003D00080312100CF010130CE0001302400BD006A
:1003E0003D08031DF429F529FB290030F200F30034
:1003F0009631C226803124005B0821004F06031D80
:10040000022A032A0B2A0030F200F3009631C2269A
:1004100080312100CE0124005A0821005106031D1D
:10042000122A132AE02AD1018631DD2680312400E8
:10043000C500003096316326803173082400B20075
:100440007208B1003208C400450846020318292A80
:100450002A2A4E2A4508C6004408C7006308C80077
:100460006408C9004308CA0046308600023087008D
:100470002B30840000308500403F803F413F813F6A
:10048000423F823F433F833F443F843F0030200050
:10049000B000F030B10088313D20803124004B089D
:1004A00045020318542A552A792A4508CB004408E6
:1004B000CC006308CD006408CE004308CF004B3069
:1004C0008600023087002B30840000308500403FDA
:1004D000803F413F813F423F823F433F833F443F14
:1004E000843F05302000B000F030B10088313D205D
:1004F000803124004408510203187F2A802AA42A4C
:100500004508D0004408D1006308D2006408D30035
:100510004308D40050308600023087002B3084001E
:1005200000308500403F803F413F813F423F823F56
:10053000433F833F443F843F0A302000B000F03007
:10054000B10088313D208031240056084402031850
:10055000AA2AAB2ACF2A4508D5004408D60063084A
:10056000D7006408D8004308D9005530860002300F
:1005700087002B30840000308500403F803F413FA2
:10058000813F423F823F433F833F443F843F0F30A0
:100590002000B000F030B10088313D2080312400CF
:1005A00061084502031CD52AD62AD82A0130BE008C
:1005B00044086202031CDD2ADE2AE02A0130BF0063
:1005C000210052080319E52AE62A2F29D201013019
:1005D0002400C30760084306031DEF2AF02AFE2A01
:1005E00064085F06031DF52AF62AFE2A63085E06E4
:1005F000031DFB2AFC2AFE2A0130C0003C304302C6
:10060000031C032B042B362BC3010130E4073C30C1
:100610006402031C0C2B0D2B1F2BE4011830F2007D
:100620000030F3006308013EF4000030031801308D
:10063000F5008931DD21803172082400E3005A3051
:100640008600023087002B308400003085000B309C
:100650002200A00016001A00A00B2A2B1430200044
:10066000B600F030B7008C31222480310310200016
:10067000961F031403183D2B402B20009617422B86
:100680002000961324004208031D472B482B2F29D6
:10069000963187268031200020082104031D512B2C
:1006A000522B482BA00100309631AD268031812C91
:1006B0005D08031D5C2B5D2B622B6130B3000030A5
:1006C000B400662B4130B3000030B4003F08031D76
:1006D0006A2B6B2B702B2030B5000030B600742BCA
:1006E0004C30B5000030B6003E08031D782B792B46
:1006F0007E2B2030B7000030B800822B5430B7007A
:100700000030B8004008031D862B872B8C2B20302F
:10071000B9000030BA00902B4330B9000030BA0065
:1007200020302000D7002030D8009830D900240095
:1007300063082200A000A10120082000DA002200A6
:1007400021082000DB00240064082200A200A3018D
:1007500022082000DC00220023082000DD00240005
:1007600043082200A400A50124082000DE00220086
:1007700025082000DF0024003A082000E1002400C2
:1007800039082000E000240038082000E30024009D
:1007900037082000E200240036082000E50024008D
:1007A00035082000E400240034082000E70024007D
:1007B00033082000E6008831192080318D2C20304C
:1007C0002000D7003B30D8009830D90024004808DA
:1007D0002200A000A10120082000DA002200210848
:1007E0002000DB00240049082200A200A301220807
:1007F0002000DC00220023082000DD0024004A083D
:100800002200A400A50124082000DE002200250803
:100810002000DF00240046082200A600A7012608C9
:100820002000E000220027082000E1008831192084
:1008300080312E302000D7006C30D8009830D9009D
:10084000240047082200A000A10120082000DA00AF
:10085000220021082000DB008831192080318D2CF6
:1008600020302000D7003B30D8009830D900240039
:1008700052082200A000A10120082000DA00220076
:1008800021082000DB00240053082200A200A3015D
:1008900022082000DC00220023082000DD002400C4
:1008A00054082200A400A50124082000DE00220034
:1008B00025082000DF00240050082200A600A70120
:1008C00026082000E000220027082000E1008831EF
:1008D000192080312E302000D7006C30D80098309D
:1008E000D900240051082200A000A1012008200006
:1008F000DA00220021082000DB0088311920803135
:100900008D2C24004108003A0319582B013A031991
:10091000DF2B033A0319302C8D2C9631872680313A
:10092000200020082104031D962C972C8D2C2030AC
:10093000A00096319A26803196318726803120009A
:1009400020082104031DA52CA62C9C2CA0010130FD
:100950009631AD2680317B2D20302000D7005330DA
:10096000D8009830D900240045082200A000A10139
:1009700020082000DA00220021082000DB00883156
:10098000192080312D302000D7006630D8009830F3
:10099000D900240044082200A000A1012008200062
:1009A000DA00220021082000DB0088311920803184
:1009B000872D20302000D7003B30D8009830D90058
:1009C00024004D082200A000A10120082000DA0028
:1009D000220021082000DB0024004E082200A20093
:1009E000A30122082000DC00220023082000DD00F3
:1009F00024004F082200A400A50124082000DE00E6
:100A0000220025082000DF0024004B082200A60059
:100A1000A70126082000E000220027082000E100AE
:100A20008831192080312E302000D7006C30D8005A
:100A30009830D90024004C082200A000A101200811
:100A40002000DA00220021082000DB008831192074
:100A50008031872D20302000D7003B30D8009830DF
:100A6000D900240057082200A000A101200820007E
:100A7000DA00220021082000DB00240058082200B0
:100A8000A200A30122082000DC002200230820008D
:100A9000DD00240059082200A400A501240820003C
:100AA000DE00220025082000DF0024005508220077
:100AB000A600A70126082000E00022002708200049
:100AC000E1008831192080312E302000D7006C30B1
:100AD000D8009830D900240056082200A000A101B7
:100AE00020082000DA00220021082000DB008831E5
:100AF00019208031872D24004108003A0319AC2CBD
:100B0000013A0319D92C033A03192A2D872D96315E
:100B100087268031200020082104031D902D912D6F
:100B2000872D2030A00096319A2680312F298031E0
:100B30003428F80023000F0C890C0139F400110847
:100B40001F397404031DA52DA62D9A2D11141118FB
:100B5000AA2DAB2DA72D0F0C890C0139F40011081B
:100B60001F397404031DB52DB62DAB2D4E308931C0
:100B70009221853123000F0C890C0139F4001108F2
:100B80001F397404031DC52DC62DBA2D7808FA38F7
:100B900089319221853123000F0C890C0139F40031
:100BA00011081F397404031DD62DD72DCB2D7808BD
:100BB000FE3889319221853123000F0C890C0139CF
:100BC000F40011081F397404031DE72DE82DDC2DF6
:100BD0000000230091149118EE2DEF2DEB2D0F0C3A
:100BE000890C0139F40011081F397404031DF92D13
:100BF000FA2DEF2D4F3089319221853123000F0CD2
:100C0000890C0139F40011081F397404031D092EE1
:100C10000A2EFE2D8731E6278531F60023000F0CC2
:100C2000890C0139F40011081F397404031D192EB1
:100C30001A2E0E2E91161116111A1F2E202E1C2E52
:100C400091149118242E252E212E0F0C890C013978
:100C5000F40011081F397404031D2F2E302E252E89
:100C60004E3089319221853123000F0C890C0139D6
:100C7000F40011081F397404031D3F2E402E342E3A
:100C80007808FA3889319221853123000F0C890CBC
:100C90000139F40011081F397404031D502E512E20
:100CA000452E7808FE3889319221853123000F0CBA
:100CB000890C0139F40011081F397404031D612ED9
:100CC000622E562E0000230091149118682E692E72
:100CD000652E0F0C890C0139F40011081F397404BA
:100CE000031D732E742E692E4F3089319221853168
:100CF00023000F0C890C0139F40011081F3974040A
:100D0000031D832E842E782E8731E6278531F70048
:100D100023000F0C890C0139F40011081F397404E9
:100D2000031D932E942E882E91161116111A992EAA
:100D30009A2E962E911491189E2E9F2E9B2E0F0C5C
:100D4000890C0139F40011081F397404031DA92E00
:100D5000AA2E9F2E4E3089319221853123000F0C0F
:100D6000890C0139F40011081F397404031DB92ED0
:100D7000BA2EAE2E7808FA388931922185312300B7
:100D80000F0C890C0139F40011081F397404031D7C
:100D9000CA2ECB2EBF2E11151119CF2ED02ECC2E30
:100DA0007708F4000430F436890BD32E0F30740525
:100DB000F5007608F0397504080023000F0C890C43
:100DC0000139F40011081F397404031DE82EE92EBF
:100DD000DD2E11141118ED2EEE2EEA2E0F0C890CBB
:100DE0000139F40011081F397404031DF82EF92E7F
:100DF000EE2E9A3089319221863123000F0C890C16
:100E00000139F40011081F397404031D082F092F3C
:100E1000FD2E013089319221863123000F0C890C7F
:100E20000139F40011081F397404031D182F192FFC
:100E30000D2F911491181D2F1E2F1A2F0F0C890C96
:100E40000139F40011081F397404031D282F292FBC
:100E50001E2F9B3089319221863123000F0C890C83
:100E60000139F40011081F397404031D382F392F7C
:100E70002D2F8731E6278631F50023000F0C890CD2
:100E80000139F40011081F397404031D482F492F3C
:100E90003D2F91161116111A4E2F4F2F4B2F0F0C5D
:100EA000890C0139F40011081F397404031D592FEE
:100EB0005A2F4F2F111511195E2F5F2F5B2F751FA2
:100EC000622F632FDD2E0F0C890C0139F4001108FD
:100ED0001F397404031D6D2F6E2F632F1114111809
:100EE000722F732F6F2F0F0C890C0139F40011082A
:100EF0001F397404031D7D2F7E2F732F9A30893183
:100F00009221863123000F0C890C0139F40011085D
:100F10001F397404031D8D2F8E2F822F00308931CD
:100F20009221863123000F0C890C0139F40011083D
:100F30001F397404031D9D2F9E2F922F9114911819
:100F4000A22FA32F9F2F0F0C890C0139F400110839
:100F50001F397404031DAD2FAE2FA32F9B30893191
:100F60009221863123000F0C890C0139F4001108FD
:100F70001F397404031DBD2FBE2FB22F8731E62702
:100F80008631F50023000F0C890C0139F40011089B
:100F90001F397404031DCD2FCE2FC22F91161116A9
:100FA000111AD32FD42FD02F0F0C890C0139F40034
:100FB00011081F397404031DDE2FDF2FD42F1115E4
:100FC0001119E32FE42FE02F750808000F302300DC
:100FD0001005F200083072060319EF2FF02FF92FD9
:100FE0000F301005F2000B307206031DF82FF92F99
:100FF000FA2F91150F1CFD2FFE2FFA2F0C08080059
:10100000080022008E018F0190019101920193014D
:101010008D0121009E019B019C0194019501960187
:1010200097019A01990198018430930001309D0045
:1010300008005A302100D300200057082100D400B6
:101040000230D500D601D701DD01DE01D430200009
:10105000CF000030D0005908D2005808D100D3305A
:10106000D3009731222788312000570821005607E6
:101070008600023087008101080020003108F4005A
:101080003008F3002D08F500973140278831200003
:101090003008013EF3000030313DF4002E08F50029
:1010A00097314027883120003008023EF30000309D
:1010B000313DF4002F08F50097314027883120009A
:1010C0003008033EF3000030313DF4002B08F500FA
:1010D00097314027883120003008043EF30000306B
:1010E000313DF4002C08F500973140278831080085
:1010F000F50023000F0C890C0139F40011081F3989
:101100007404031D8428852879281114111889284E
:101110008A2886280F0C890C0139F40011081F3920
:101120007404031D942895288A284E308931922111
:10113000883123000F0C890C0139F40011081F3984
:101140007404031DA428A5289928750889319221C3
:10115000883123000F0C890C0139F40011081F3964
:101160007404031DB428B528A92811151119B9282C
:10117000BA28B628080020006A1CBF28C028C92841
:101180002D08A5002C08A7002B08A6009731DC2706
:1011900088312000AF1FCD28CE28D028AE01AF0166
:1011A000B001B101E4282030F2000030F30020004B
:1011B0002C08F5002B08F4008A312E2288310130EA
:1011C0002000B0070030B13D3108803AF8002F0808
:1011D000803A7802031DEE282E083002031CF12805
:1011E000F228D32820006A18F628F72800292D08AD
:1011F000A5002C08A7002B08A6009731DC27883112
:10120000080020009A019901960197019801073082
:1012100095000F309100FF309200FF309300FF30B7
:101220009400FF303E00D900C730CE00EF30C3003D
:101230000730E4000F30B800DA01E501C401B9015C
:101240001830CF00E601BA01C501D001DB01FF3043
:10125000BB00FF30C600FF30D100FF30DC0007309C
:10126000E700FF30BC00FF30C700FF30D200FF3086
:10127000DD000730E80013303D00C50014303E00AB
:10128000A3001530A4000E30960014303D00C600B7
:101290000800740886007508870042317708F3005B
:1012A0007608F2009531BD258931810074088600E9
:1012B0007508870043317608013EF2000030773D23
:1012C000F3009531BD2589318100740886007508C9
:1012D000870044317608023EF2000030773DF3008B
:1012E0009531BD2589318100740886007508870015
:1012F0007608033EF2000030773DF3009531BD25BE
:1013000089318100740886007508870041317608AC
:10131000043EF2000030773DF3009531BD25893160
:1013200081000800F300730823008C00901F9929A6
:101330009A299B29DC290F301005F200083072062B
:101340000319A329A429BA290F301005F2000B3084
:1013500072060319AC29AD29BA2910162E000F1CEC
:10136000B229B329AE2923000F19B729B829DC29DE
:101370000F08DC290F301005F2000830720603193F
:10138000C229C329CC290F301005F2000B30720698
:10139000031DCB29CC29DC290F18CF29D029CC2932
:1013A0000F0C890C0139F20011081F397204031D5A
:1013B000DA29DB29D02911080800F701F51FE129F6
:1013C000E229E929F409F509F40A0319F50A0130BB
:1013D000F700F31FEC29ED29F229F209F309F20ACB
:1013E0000319F30A720873040319F729F8291F2A4D
:1013F0000130F600022A0130F235F30D890BFC2989
:101400000130F607F31F052A062AFB297308750227
:10141000031D0C2A72087402031C0F2A102A142AB6
:101420007208F4027308F53B0130F336F20C890BB5
:10143000152A0130F602031D1E2A1F2A062A7708E4
:101440000319232A242A292AF409F509F40A03197D
:10145000F50A7508F3007408F200080074087504B2
:101460000319332A342A3A2A74087504031D392AC9
:101470003A2A3F2A7208803103208A31862A74086A
:10148000860087014931160001040319482A492AB8
:10149000682A7408860087014931403F2000A00077
:1014A000413FA1007408860087014231403FA200FD
:1014B000413FA3002308803AA4002108803A240277
:1014C000031D642A200822020318672A682A862A34
:1014D000740886008701423174088400750885000D
:1014E000003F2000A000013FA100403F20078400F2
:1014F000413F213D85007208800074088600870105
:1015000042310130810741310318810A0800F70197
:10151000F31F8B2A8C2A932AF209F309F20A031982
:10152000F30A0130F700F51F962A972A9E2AF4093C
:10153000F509F40A0319F50A0130F706F801F90173
:10154000720873040319A52AA62AD32A0130F600CB
:10155000B02A0130F235F30D890BAA2A0130F607C3
:10156000F31FB32AB42AA92A0130F835F90D890BE3
:10157000B52A73087502031DBF2A72087402031C82
:10158000C22AC32AC82A7208F4027308F53B7814E9
:101590000130F336F20C890BC92A0130F602031D23
:1015A000D22AD32AB42A77080319D72AD82ADD2ABF
:1015B000F809F909F80A0319F90A7908F300780813
:1015C000F20008002000A401A50178088600870128
:1015D000403FA000413FA100200884002108850071
:1015E00012002A3A031DF52AF62A252B78088600D0
:1015F00087010130810741310318810A790886008B
:10160000870101088400850102308107003FA400A2
:10161000013FA500392B2508F3002408F2000A3009
:10162000F4000030F50097317D278A31200023082F
:101630007207A4000030733DA5007808860087017A
:101640000130810741310318810A7808860087013B
:10165000403FA000413FA1002008840021088500F0
:101660000008D03EA3000A302302031C382B392B7C
:101670000B2B2508F9002408F80008002100470872
:101680004804031D442B452B4D2B48082000AB007C
:10169000210047082000AA00562B4708FF3E2000E3
:1016A000AA00FF302100483D2000AB006A1C592BE6
:1016B0005A2B682B2708F600F7017608F200770806
:1016C000F3002608F5002508F4008A312E228B311C
:1016D0002000AB1B6C2B6D2B6E2B702BAA01AB016A
:1016E000A801A901842B2030F2000030F300200073
:1016F0002608F5002508F4008A312E228B310130AE
:101700002000A8070030A93D2908803AF6002B08E0
:10171000803A7602031D8E2B2A082802031C912B87
:10172000922B732B20006A18962B972BA52B27083A
:10173000F600F7017608F2007708F3002608F500B6
:101740002508F4008A312E228B3108004130F9003F
:10175000EE30890BA92BF90BA92B003230308831E0
:1017600078208B313430883178208B31A630890B4A
:10177000B72B00323030883178208B310730F900B8
:101780007D30890BC12BF90BC12B00003030883123
:1017900078208B313430883178208B31A630890B1A
:1017A000CF2B00323030883178208B312130890BBB
:1017B000D72B00003030883178208B31343088319D
:1017C00078208B31A630890BE32B00323030883102
:1017D00078208B312130890BEB2B000020308831B1
:1017E00078208B312430883178208B31A630890BDA
:1017F000F72B00322030883178208B310730F90008
:101800007D30890B012CF90B012C0000F4012830EC
:101810008C31CD248B31F40106308C31CD248B31C9
:10182000F4010F308C31CD248B31F40101308C3137
:10183000CD248B310330F9009830890B1D2CF90B26
:101840001D2C080020003708F4003608F300AB30E8
:10185000F500973140278C3120003608013EF30017
:101860000030373DF4002B08F500973140278C31CC
:1018700020003608023EF3000030373DF4002C080B
:10188000F500973140278C3120003608033EF300E5
:101890000030373DF4002D08F500973140278C319A
:1018A00020003608043EF3000030373DF4002E08D7
:1018B000F500973140278C3120003608053EF300B3
:1018C0000030373DF4002F08F500973140278C3168
:1018D00020003608063EF3000030373DF4003008A3
:1018E000F500973140278C3120003608073EF30081
:1018F0000030373DF4003108F500973140278C3136
:1019000020003608083EF3000030373DF40032086E
:10191000F500973140278C3120003608093EF3004E
:101920000030373DF4003308F500973140278C3103
:10193000200036080A3EF3000030373DF40034083A
:10194000F500973140278C31200036080B3EF3001C
:101950000030373DF4003508F500973140278C31D1
:10196000200036080C3EF3000030373DF4002B30E9
:1019700086000030870020308400003085000B3066
:10198000F70016001A00F70BC12C9531FE258C319B
:10199000F500973140278C310800F6007608F039C1
:1019A000F7007608F5000430F535890BD42C75085E
:1019B000F039F80023000F0C890C0139F5001108EB
:1019C0001F397504031DE52CE62CDA2C11141118AF
:1019D000EA2CEB2CE72C0F0C890C0139F5001108CF
:1019E0001F397504031DF52CF62CEB2C4E30893174
:1019F00092218C3123000F0C890C0139F50011085C
:101A00001F397504031D052D062DFA2C7708740463
:101A10000838893192218C3123000F0C890C01394F
:101A2000F50011081F397504031D172D182D0C2DF5
:101A3000770874040C38893192218C3123000F0C03
:101A4000890C0139F50011081F397504031D292D72
:101A50002A2D1E2D00007708740408388931922140
:101A60008C3123000F0C890C0139F50011081F3946
:101A70007504031D3C2D3D2D312D78087404083864
:101A8000893192218C3123000F0C890C0139F5002A
:101A900011081F397504031D4E2D4F2D432D780855
:101AA00074040C38893192218C3123000F0C890C7D
:101AB0000139F50011081F397504031D602D612DD2
:101AC000552D0000780874040838893192218C3132
:101AD00023000F0C890C0139F50011081F3975041A
:101AE000031D732D742D682D11151119782D792D65
:101AF000752D1030890B7A2D00320800013020003E
:101B0000B900B51B842D862D0130872D0030BC0017
:101B1000210048082000BB00210047082000BA002F
:101B20003C080319942D952DA92DFF30BA07FF30DD
:101B3000BB3D3C08031D9D2D9E2DA32D2B30B700D2
:101B40000030B800A72D2D30B7000030B80037089E
:101B5000BC001F30BD000030BE002300BF01E42DDB
:101B6000FF30BD07FF30BE3D3D08A03E860001307E
:101B700087000A30F2000030F3003508F500340821
:101B8000F4008931DD218D317308F9007208F80005
:101B9000963175268D317808303E81002000B901DC
:101BA000FF30BA07FF30BB3D0A30F2000030F300CF
:101BB0003508F5003408F4008A3187228D31730826
:101BC0002000B5007208B40020003E08803AB6003C
:101BD00080303602031DEE2D01303D02031CF12D35
:101BE000F22D102E200034083504031DF82DF92D98
:101BF000B02D3908031DFD2DFE2DB02D3B08803A78
:101C0000B60080303602031D072E01303A02031C55
:101C10000A2E0B2E102E2000EA180F2E102EB02D9B
:101C200020003C080319152E162E212EFF30BD076B
:101C3000FF30BE3D3D08A03E8600013087003C08D5
:101C400081003308AC003208AB003D08A03EAD0077
:101C50003B08AF003A08AE008831BB208D31080048
:101C60007708F3007608F2009531BD258E3120000B
:101C7000AB0074088600750887007608013EF20004
:101C80000030773DF3009531BD258E318100740819
:101C900086007508870041317608023EF200003068
:101CA000773DF3009531BD258E31810074088600A3
:101CB0007508870042317608033EF2000030773D18
:101CC000F3009531BD258E318100740886007508BA
:101CD000870043317608043EF2000030773DF30080
:101CE0009531BD258E318100740886007508870006
:101CF00044317608053EF2000030773DF30095311F
:101D0000BD258E3181007408860075088700453135
:101D10007608063EF2000030773DF3009531BD2590
:101D20008E31810074088600750887004631760878
:101D3000073EF2000030773DF3009531BD258E312E
:101D40008100740886007508870047317608083ED0
:101D5000F2000030773DF3009531BD258E318100D2
:101D6000740886007508870048317608093EF2003D
:101D70000030773DF3009531BD258E318100740828
:101D8000860075088700493176080A3EF200003067
:101D9000773DF3009531BD258E31810074088600B2
:101DA000750887004A3176080B3EF2000030773D17
:101DB000F3009531BD258E31810076080C3EF2008E
:101DC0000030773DF3009531BD258E312000AC0009
:101DD000AB302B06031DED2EEE2E052F740886006A
:101DE0007508870020308400003085000B30F80033
:101DF00016001A00F80BF82E9531FE258E312000C2
:101E00002C060319042F052F0A2F74088600750865
:101E10008700810108002000410886008701403FBB
:101E2000C300413FC40043088400440885001200F9
:101E3000253A031D1C2F1D2FE52F41088600870121
:101E40000130810741310318810A2100C701C8010F
:101E500000302000EA00FF302100C900FF30CA0036
:101E60002000CC01502FEA14410886008701013080
:101E7000810741310318810A502F0130CC00502FC7
:101E8000410886008701403FC300413FC40043082A
:101E90008400440885000008303A0319332F3D2F91
:101EA0004C080319542F552F402F4108F8004208C1
:101EB000F9008A31E2228F3179082100C8007808C0
:101EC000C700C81F642F652F6D2F20006A142100E2
:101ED000C709C809C70A0319C80A200041088600B3
:101EE0008701403FC300413FC400430884004408C9
:101EF00085001200633A031D7E2F7F2F9B2F410820
:101F0000860087010130810741310318810A4208A8
:101F100086008701010884008501023081070008DE
:101F2000CB004008A6003F08A5004B08A7008B3156
:101F30003E238F31FF2F410886008701403FCD00AF
:101F4000413FCE004D0884004E0885001200643ADF
:101F50000319AB2FAC2FB62F4D0884004E08850017
:101F60001200693A031DB52FB62FDB2F42088600F9
:101F7000870101088400850102308107003FC70006
:101F8000013FC8004D08013EC30000304E3DC40073
:101F90004108860087014308C03F4408C13F40080C
:101FA000B3003F08B2004808B5004708B4008D31BF
:101FB0007E258F31FF2F20004108860087010130E8
:101FC000810741310318810AFF2F410886008701EC
:101FD000403FC300413FC4004308840044088500DB
:101FE0000008C500C6014508F2004608F300400895
:101FF000F5003F08F4008A312E228F31DB2F0800D4
:102A1600080024001410080024001A1008002100E1
:102A26001313080024000E140800240014140800D0
:102A360024001A140800FF34003400340034003433
:102A460073082100EB007208EA00080073082100F1
:102A5600E9007208E800080073082100E700720820
:102A6600E6000800640080010131890B362D003430
:102A7600FE0012001E00FE0B3C2D0034F900F4018E
:102A860079088C31CD2495310800003403340034A4
:102A960000340034013401347B08F1007A08F00078
:102AA60096311F2695310800F900F401F40A7908D9
:102AB6008C31CD24953108002F009601970198019D
:102AC60099019A019B0108007B08F3007A08F2003D
:102AD600963141269531080020006908F100680802
:102AE600F0009631302695310800623031008D00B5
:102AF6008F019101023093009201080020006908BD
:102B0600F3006808F200963152269531080001302C
:102B16002100D2000130D1070130D0070130CF07A4
:102B2600080001302100E50095310C2595319531DD
:102B36004F259531080001302100E40095310F251D
:102B4600953195316F2595310800803023008F002F
:102B560008309000910103308D00901208008030FB
:102B660027008E008D018C0124001F08F3390438DC
:102B76009F000800730830009B0072089A001E1719
:102B86001E140000000030001C0808002100680820
:102B960069040319CF2DD02DD52D69088A00680840
:102BA6000A00953108002E0010117B08F1007A0802
:102BB600F00096311F2695319531C92595310800CB
:102BC600803023008F0008309000910103308D0083
:102BD600901620009315131608000130250090006A
:102BE6008F01910118308D008C012E0090108030DD
:102BF60025008E000800F201200021082207230785
:102C06002407250726072707280729072A07200755
:102C1600F2077208080024000E1D122E132E1A2E1B
:102C26000E1071088D0070088C000E141E2E71088F
:102C36008D0070088C0008002400141D232E242EFD
:102C46002B2E1410710893007008920014142F2E66
:102C56007108930070089200080024001A1D342E93
:102C6600352E3C2E1A1071089900700898001A1417
:102C7600402E710899007008980008002400141D61
:102C8600452E462E4D2E141073089300720892009E
:102C96001414512E73089300720892000800240041
:102CA6001A1D562E572E5E2E1A107308990072089A
:102CB60098001A14622E730899007208980008008A
:102CC600F400740821009E009317131313140000D8
:102CD600210013186F2E702E6B2E0D08F3000C08B2
:102CE600F2000800F91B782E792E7A2E862E7809A6
:102CF6002000A0007909A100A00A0319A10A200852
:102D0600F8002108F9000800003085319925963130
:102D1600803903198F2E902E962E01302000A000A8
:102D26000030A100992E2000A001A10108009F2ECD
:102D3600210895315725963120002008860002305B
:102D46008700A00A0108A1002108031DAB2EAC2EA6
:102D56009B2E08002000A10021080319B32EB42ED3
:102D6600B72EC030A200B92E8030A20020080F393D
:102D76002204A200220895314125963108007308E5
:102D8600F5007208F400F536F40CF536F40C740808
:102D960027008D0072080339F4000630F435890BDC
:102DA600D12E74088C0008002E00101021004C084B
:102DB600F1004B08F00096310E26963121006A0884
:102DC6006B040319E72EE82EED2E6B088A006A08BD
:102DD6000A00963108002E00101220006908F10042
:102DE6006808F0009631302696312100660867049F
:102DF6000319FE2EFF2E042F67088A0066080A00B4
:102E06009731080024009501960104309700C330DD
:102E16009300743092002E00101124001308FB005A
:102E26001208FA002E001A150030F2000830F300DE
:102E3600953129259731053024009400080020009B
:102E46005208D6005108D500332F5008C0004F084D
:102E5600BF005530C1005308C2008F310B27973190
:102E6600200055088400560885001200031D3C2FDB
:102E76003D2F282FCF01D00108000B0D0B0D013976
:102E8600F600740830009B0073089A0075089C00D1
:102E96001E171E158B1355309F00AA309F009E14D7
:102EA6009E18562F572F532F1E11760C031C8B136B
:102EB60003188B17080095315F2597319531A825A2
:102EC600973189310121973195317825973195319F
:102ED600B2259731883101209731973105279731EF
:102EE6009731BC2797319531F025973197319C273B
:102EF60097310800F601F701721C822F832F872F66
:102F06007408F6077508F73D0130F435F50D890BA1
:102F1600882F0130F336F20C890B8D2F720873045B
:102F2600031D962F972F7F2F7708F3007608F20060
:102F3600080024008F0190010430910086308D0036
:102F4600E8308C002E00101024000D082100CC0063
:102F560024000C082100CB002E001A140B30F200BE
:102F66001530F300953123259731053024008E0066
:102F7600080024009B019C0104309D00C330990089
:102F8600743098002E001012240019082000E90061
:102F9600240018082000E8002E001A160230F2005D
:102FA6000030F30095312F259731053024009A0023
:102FB60008002000A901AA01F32F2808F600F7014E
:102FC6007608F2007708F3002708F5002608F400D3
:102FD6008A312E22973101302000A9070030AA3D00
:102FE600250829078600013087000108A80028085F
:102FF600031DFE2FFF2FE02F08000034003400349D
:10300600003400340034003400340034003400341A
:10301600003400340034003400340034003400340A
:1030260000340034003400340034003400340034FA
:103036000034003400340034003425343034323463
:1030460064343A3425343034323464343A342534F2
:103056003034323464342034203425346334253417
:103066006334253463342034253463342034003407
:1030760025343034323464343A34253430343234FE
:1030860064343A34253430343234643420342534CC
:103096003034323464344334203420342034003421
:1030A600253430343234643420346F34433420349D
:1030B600203420342034203420342034203420346A
:1030C6002034203400344C342034253431346434F4
:0C30D60000344C342534313464340034B0
:020000040001F9
:08000000FF3FFF3FFF3FFF3F00
:0A000E00EC3FFF3F9F3FFF3FFF3F25
:00000001FF
